:100000000C944E000C946D000C946D000C946D00DB
:100010000C946D000C946D000C946D000C946D00AC
:100020000C946D000C946D000C946D000C946D009C
:100030000C946D000C9414010C946D000C946D00E4
:100040000C946D000C946D000C946D000C946D007C
:100050000C946D000C946D000C946D000C946D006C
:100060000C946D000C946D000C946D000C946D005C
:100070000C946D000C946D000C946D000C946D004C
:100080000C946D000C946D000C946D00B706FB068B
:100090000F071A0725073A07AE07E20711241FBE0C
:1000A000CFEFD0E4DEBFCDBF11E0A0E0B1E0ECE3E4
:1000B000F4E100E00BBF02C007900D92AA33B10734
:1000C000D9F721E0AAE3B1E001C01D92A238B2073E
:1000D000E1F70E9406080C941C0A0C940000CF93D0
:1000E000DF9300D01F92CDB7DEB789837B836A830D
:1000F00089818A3031F48A819B81BC018DE00E9424
:100100006F0080EC90E0FC018081882F90E080728D
:100110009927892BB1F386EC90E02981FC0120839B
:1001200080E090E00F900F900F90DF91CF910895B5
:10013000CF93DF9300D000D0CDB7DEB769837A8349
:100140008B839C8389819A81AB81BC8180930E01D2
:1001500090930F01A0931001B093110180910E01B3
:1001600090910F01A0911001B091110180933B017A
:1001700090933C01A0933D01B0933E0100000F908D
:100180000F900F900F90DF91CF910895CF93DF9351
:10019000CDB7DEB781E890E02BE0FC01208388E852
:1001A00090E02DE730E0FC01318320838FE690E082
:1001B00022E0FC01208384E890E0FC01118210829F
:1001C00080910E0190910F01A0911001B091110149
:1001D00080933B0190933C01A0933D01B0933E017D
:1001E0008FE590E02FE530E0F90120812068FC01E7
:1001F00020830000DF91CF910895CF93DF93CDB797
:10020000DEB781E890E0FC0110820000DF91CF9121
:100210000895CF93DF93CDB7DEB781E080933A01A5
:100220000000DF91CF9108951F920F9200905F0020
:100230000F92112400905B000F922F933F934F93E6
:100240005F936F937F938F939F93AF93BF93EF933E
:10025000FF93CF93DF93CDB7DEB780913B019091B1
:100260003C01A0913D01B0913E010197A109B10966
:1002700080933B0190933C01A0933D01B0933E01DC
:1002800080913B0190913C01A0913D01B0913E01D4
:10029000892B8A2B8B2B91F40E94090180910E01EE
:1002A00090910F01A0911001B091110180933B0139
:1002B00090933C01A0933D01B0933E010000DF917B
:1002C000CF91FF91EF91BF91AF919F918F917F91CE
:1002D0006F915F914F913F912F910F9000925B0032
:1002E0000F9000925F000F901F901895CF93DF93AF
:1002F000CDB7DEB72C970FB6F894DEBF0FBECDBFDB
:100300006D837E838F83988729873A874B875C87A5
:100310008D819E81AF81B88529853A854B855C8525
:10032000BC01CD010E94F109DC01CB0189839A83D4
:10033000AB83BC8389819A81AB81BC81892B8A2B59
:100340008B2B29F489859A85AB85BC8511C089855D
:100350009A85AB85BC858D839E83AF83B887898161
:100360009A81AB81BC8189879A87AB87BC87D0CFC4
:10037000BC01CD012C960FB6F894DEBF0FBECDBFE9
:10038000DF91CF910895CF93DF93CDB7DEB78AE7A2
:1003900090E02AE730E0F9012081206EFC01208303
:1003A0000000DF91CF910895CF93DF9300D000D06C
:1003B000CDB7DEB78B836C831A82198249C088E27D
:1003C00090E028E0FC0120838BE290E028E0FC0133
:1003D000208388E290E028E230E0F9012081422F7A
:1003E0002B81222F30E0098002C0359527950A9491
:1003F000E2F72170242BFC0120838BE290E02BE2BA
:1004000030E0F9012081422F2C81222F30E0098039
:1004100002C0359527950A94E2F72170242BFC0140
:10042000208388E290E028E230E0F9012081226018
:10043000FC0120838BE290E02BE230E0F901208187
:100440002260FC01208389819A8101969A838983A5
:1004500089819A8108970CF4B2CF88E290E028E273
:1004600030E0F90120812460FC0120838BE290E0E0
:100470002BE230E0F90120812460FC01208388E236
:1004800090E0FC0110828BE290E0FC011082000001
:100490000F900F900F900F90DF91CF910895CF9311
:1004A000DF931F92CDB7DEB789838CE790E0298177
:1004B000283028F02CE730E0F901208101C02981A3
:1004C000FC01208310924D0106C0000080914D0177
:1004D0008F5F80934D0180914D018F30B0F300000C
:1004E0000F90DF91CF910895CF93DF9300D000D08C
:1004F000CDB7DEB79C838B8388E790E0FC018081D9
:1005000091819A83898380914401882341F01092DC
:100510004E018FE8809316018FED809317018B8138
:100520009C8181309105D1F08230910579F1892B40
:1005300009F04AC089819A81843F914020F481E08A
:1005400090E09C838B8389819A818935924008F45D
:100550003EC082E090E09C838B8339C080914E0145
:1005600018168CF08091160186958068809316018C
:1005700080911701869580688093170180914E01C4
:100580008F5F80934E011C821B8222C080914E019E
:100590008823BCF080911601882F90E0880F991F66
:1005A00081608093160180911701882F90E0880F59
:1005B000991F81608093170180914E018150809333
:1005C0004E011C821B8204C01C821B8201C00000E1
:1005D0008B819C810F900F900F900F90DF91CF91A6
:1005E0000895CF93DF9300D0CDB7DEB79A83898388
:1005F00083E290E0FC018081882F90E08170992750
:1006000021E0892B09F020E0822F8093460183E2CC
:1006100090E0FC01808180958270809347018091F9
:100620004401882351F01092500110924F018FE83D
:10063000809318018FED8093190189819A8181300F
:10064000910509F440C0823091051CF4892B41F0DA
:1006500070C082309105B1F0039709F45AC069C0A7
:1006600080914701882321F082E090E09A8389837A
:1006700080914601882309F45FC081E090E09A836D
:1006800089835AC080914F01909150011816190624
:10069000ACF0809118018695806880931801809154
:1006A0001901869580688093190180914F0190917E
:1006B000500101969093500180934F0183E090E0A8
:1006C0009A8389833AC080914F0190915001992378
:1006D000DCF080911801882F90E0880F991F8160CD
:1006E0008093180180911901882F90E0880F991F3D
:1006F00081608093190180914F0190915001019781
:100700009093500180934F0183E090E09A83898316
:1007100014C080914601882339F4809147018823D1
:1007200019F41A82198209C083E090E09A838983C0
:1007300004C01A82198201C0000089819A810F9039
:100740000F90DF91CF910895CF93DF9300D000D029
:10075000CDB7DEB79C838B8388E790E0FC01808176
:1007600091819A83898380914401882379F0109242
:10077000440184E080931A0184E080931B0181E0AE
:1007800080931C01109251011C821B828B819C81E1
:100790008230910509F4CAC0833091052CF400978A
:1007A00079F00197C1F0BBC28430910509F412C2FF
:1007B000843091050CF46AC1059709F4A4C2AFC254
:1007C0008FED8093480188E08093490184E090E0B8
:1007D0009C838B83A7C280911B01882309F09AC058
:1007E00080911A0180931B0180915101823029F47C
:1007F00082E090E09C838B8395C280914901803494
:10080000A9F59091480180911601982B809148019B
:10081000981761F584E090E09C838B8389819A81AD
:10082000843F914028F089819A818935924020F057
:1008300082E080931C0103C081E080931C019091B1
:10084000170180914801981731F480911A018F5F48
:1008500080931A0169C080911A01882309F464C049
:1008600080911A01815080931A015EC080914901E4
:100870008038D1F480911201882329F480914001BD
:100880008F5F8093400184E08093410182E08093F8
:10089000420181E08093430181E08093120185E071
:1008A00090E09C838B833EC280911C01813021F0BB
:1008B00080915101813061F4809151018F5F80936B
:1008C000510180914801869580688093480118C045
:1008D00080915101982F80911C01890F80935101C3
:1008E00080914801882F90E020911C01222F30E058
:1008F00002C0959587952A95E2F7806C8093480110
:1009000080914901880F8093490181E090E09C83A8
:100910008B8308C280911B01815080931B0181E071
:1009200090E09C838B83FEC10000FCC180911B0181
:10093000882309F09FC080911A0180931B01809148
:1009400051018E3F29F481E090E09C838B83EAC1C2
:10095000809149018034A9F5909148018091160158
:10096000982B80914801981761F583E090E09C8373
:100970008B8389819A81843F914028F089819A8173
:100980008935924020F082E080931C0103C081E011
:1009900080931C019091170180914801981731F4C0
:1009A00080911A018F5F80931A016EC080911A01A5
:1009B000882309F469C080911A01815080931A013B
:1009C00063C0809149018038D1F48091120188235D
:1009D00029F4809140018F5F8093400184E08093EF
:1009E000410182E08093420181E08093430181E0F4
:1009F0008093120185E090E09C838B8393C180916A
:100A00001C01813021F0809151018F3F79F4809158
:100A1000510181508093510180914801882F90E0CD
:100A2000880F991F8160809348011AC080915101FD
:100A3000982F80911C01292F281B822F8093510110
:100A400080914801882F90E020911C01222F30E0F6
:100A500002C0880F991F2A95E2F7836080934801AE
:100A600080914901880F8093490182E090E09C8346
:100A70008B8358C180911B01815080931B0182E0C0
:100A800090E09C838B834EC100004CC180911B0180
:100A9000882309F093C080911A0180931B018091F3
:100AA00051018E3F29F484E090E09C838B833AC10E
:100AB00080914901823099F5909148018091180107
:100AC000982B80914801981751F582E090E09C8323
:100AD0008B8380914601882321F4809147018823EC
:100AE00021F082E080931C0103C081E080931C010F
:100AF0009091190180914801981731F480911A0161
:100B00008F5F80931A0164C080911A01882309F4D1
:100B10005FC080911A01815080931A0159C0809161
:100B200049018130D1F480911201882329F4809108
:100B30003F018F5F80933F0180E88093410180E413
:100B40008093420180E28093430181E0809312010F
:100B500085E090E09C838B83E5C080911C0181300F
:100B600021F0809151018F3F79F4809151018150A2
:100B70008093510180914801882F90E0880F991F40
:100B800081608093480110C0809151018250809310
:100B9000510180914801882F90E0880F991F880F9C
:100BA000991F8360809348018091490186958093C5
:100BB000490183E090E09C838B83B4C080911B014A
:100BC000815080931B0183E090E09C838B83AAC0BB
:100BD0000000A8C080911B01882309F088C0809183
:100BE0005101823029F483E090E09C838B839AC08A
:100BF00080914901823099F59091480180911801C6
:100C0000982B80914801981751F581E090E09C83E2
:100C10008B8380914601882321F4809147018823AA
:100C200021F082E080931C0103C081E080931C01CD
:100C30009091190180914801981731F480911A011F
:100C40008F5F80931A015DC080911A01882309F497
:100C500058C080911A01815080931A0152C080912E
:100C600049018130D1F480911201882329F48091C7
:100C70003F018F5F80933F0180E88093410180E4D2
:100C80008093420180E28093430181E080931201CE
:100C900085E090E09C838B8345C080911C0181306E
:100CA00021F080915101813061F4809151018F5F79
:100CB0008093510180914801869580688093480116
:100CC0000CC0809151018E5F809351018091480149
:100CD00086958695806C8093480180914901869520
:100CE0008093490184E090E09C838B831BC08091BA
:100CF0001B01815080931B0184E090E09C838B83D7
:100D000011C000000FC080911201882329F085E0F6
:100D100090E09C838B8306C01C821B8203C01C82D4
:100D20001B8200008B819C810F900F900F900F9081
:100D3000DF91CF910895CF93DF9300D0CDB7DEB789
:100D40009A83898389819A81092E000CAA0BBB0B97
:100D500040E050E027E030E0841B950B281739076E
:100D600008F443C18A5B9F4FFC010C94130A8091E5
:100D7000520190915301805E9E4FFC012081809131
:100D8000520190915301885D9E4FFC018081622F3A
:100D90000E94D4018091520190915301079750F421
:100DA0008091520190915301019690935301809349
:100DB000520104C0109253011092520190914601C9
:100DC00080914701981709F413C180914601882347
:100DD00011F01092450180914701882319F081E0BC
:100DE00080934501109253011092520181E090E0EE
:100DF0009A838983FDC080914601882309F0FAC057
:100E000080914701882309F0F5C081E08093440177
:100E10001092120182E090E09A838983EBC0909156
:100E2000160180E8692F0E94D40183E090E09A8344
:100E30008983E5C09091180181E0692F0E94D40157
:100E400084E090E09A838983DAC090914801809190
:100E50004901692F0E94D40180911201882329F051
:100E600085E090E09A838983CAC082E090E09A830B
:100E70008983C5C080915201909153018D5E9E4F30
:100E8000FC01208180915201909153018F5B9E4F14
:100E9000FC018081622F0E94D401809152019091C7
:100EA0005301039750F480915201909153010196A0
:100EB000909353018093520104C0109253011092F9
:100EC00052018091540190915501883E934050F415
:100ED0008091540190915501019690935501809312
:100EE00054018DC01092550110925401109253017B
:100EF0001092520181E0809344018091400183303F
:100F000089F481E08093120184E080934A0182E0B9
:100F100080934B0181E080934C0186E090E09A83BE
:100F200089836DC080913F01833089F481E0809393
:100F3000120180E880934A0180E480934B0180E2B3
:100F400080934C0186E090E09A83898358C0109288
:100F5000120182E090E09A83898351C0809152010E
:100F600090915301835E9E4FFC012081809152013C
:100F700090915301865B9E4FFC018081622F0E94FD
:100F8000D4018091520190915301029750F48091C5
:100F90005201909153010196909353018093520115
:100FA00004C010925301109252018091460188238F
:100FB00019F1809147018823F9F087E090E09A8346
:100FC00089831AC0809146018823C1F4809147012A
:100FD0008823A1F410925301109252011092400103
:100FE00010923F011A82198209C01A82198207C021
:100FF000000005C0000003C0000001C0000089819E
:101000009A810F900F90DF91CF9108950F931F93C6
:10101000CF93DF93CDB7DEB761970FB6F894DEBFFD
:101020000FBECDBF81E290E0FC01108282E290E031
:101030002FEFFC01208384E290E0FC01108285E226
:1010400090E02FEFFC01208387E290E02FEFFC017E
:10105000208388E290E0FC0110828AE290E02FEF8A
:10106000FC0120838BE290E0FC01108288E0E2E347
:10107000F1E0DE011A9601900D928A95E1F784E085
:1010800090E098878F838FEF8987898580935601B9
:1010900084E690E0A0E0B0E080935701909358017F
:1010A000A0935901B0935A01809157019091580132
:1010B000A0915901B0915A0180935B0190935C011A
:1010C000A0935D01B0935E0184E792E0909360018C
:1010D00080935F0189858093610184E690E0A0E0C0
:1010E000B0E08093620190936301A0936401B09398
:1010F00065018091620190916301A0916401B091BA
:1011000065018093660190936701A0936801B09395
:10111000690181EF92E090936B0180936A01898568
:1011200080936C0184E690E0A0E0B0E080936D01D4
:1011300090936E01A0936F01B093700180916D0147
:1011400090916E01A0916F01B09170018093710137
:1011500090937201A0937301B093740184EA93E0B9
:10116000909376018093750189858093770181E062
:1011700090E0A0E0B0E08093780190937901A09393
:101180007A01B0937B018091780190917901A091CF
:101190007A01B0917B0180937C0190937D01A093B3
:1011A0007E01B0937F018BE996E09093810180935B
:1011B00080010E94C30181E00E944F028A859B85C5
:1011C000FC0181819281A381B4818B839C83AD8357
:1011D000BE831A82198225C089819A81880F991F3E
:1011E0009E012F5F3F4F820F931F0996FC01808164
:1011F0009181FC0121813281438154818B819C81C9
:10120000AD81BE81BC01CD010E947601DC01CB0124
:101210008B839C83AD83BE8389819A8101969A8357
:10122000898329813A818F81988528173907A0F20F
:101230008B819C81AD81BE81BC01CD010E94980053
:101240000E94C6008BE290E02BE230E0F901308191
:10125000209140012295207F230FFC0120838BE207
:1012600090E02BE230E0F901308120913F0122959E
:10127000220F220F207C230FFC0120831A82198267
:10128000A0C089819A81880F991F9E012F5F3F4FCF
:10129000820F931F0996FC0180819181FC012581B9
:1012A00036814781508589819A81880F991FBE01B7
:1012B0006F5F7F4F860F971F0996FC018081918198
:1012C000FC0181819281A381B481281739074A07E3
:1012D0005B0709F045C089819A81880F991F9E019B
:1012E0002F5F3F4F820F931F0996FC0100811181F0
:1012F00089819A81880F991F9E012F5F3F4F820F2E
:10130000931F0996FC0180819181FC012185328522
:1013100089819A81880F991FAE014F5F5F4F840FBB
:10132000951F0996FC0180819181FC018081082E26
:10133000000C990BF9010995F801808389819A8144
:10134000880F991F9E012F5F3F4F820F931F0996B1
:10135000FC0180819181FC01158216821782108622
:1013600089819A81880F991F9E012F5F3F4F820FBD
:10137000931F0996FC016081718189819A81880F90
:10138000991F9E012F5F3F4F820F931F0996FC010B
:1013900080819181FC0125813681478150858B8137
:1013A0009C81AD81BE81820F931FA41FB51FFB01DD
:1013B00085839683A783B08789819A8101969A83D2
:1013C000898329813A818F8198852817390708F404
:1013D00058CF000080913A018823E1F310923A013E
:1013E00031CFA1E21A2EAA1BBB1BFD010DC0AA1F03
:1013F000BB1FEE1FFF1FA217B307E407F50720F07E
:10140000A21BB30BE40BF50B661F771F881F991FF8
:101410001A9469F760957095809590959B01AC0141
:10142000BD01CF010895EE0FFF1F0024001C0BBE6D
:0C1430000790F691E02D0994F894FFCF8E
:10143C0000000002000000006F000000000001002E
:10144C00000001DF8FDF8FDF8FDF040401400040DD
:10145C00AF87BFFFFFB797A7804020100804020199
:0A146C008001560161016C01770157
:00000001FF
