:100000000C9446000C9465000C9465000C946500FB
:100010000C9465000C9465000C9465000C946500CC
:100020000C9465000C9465000C9465000C946500BC
:100030000C9465000C940C010C9465000C94650004
:100040000C9465000C9465000C9465000C9465009C
:100050000C9465000C9465000C9465000C9465008C
:100060000C9465000C9465000C9465000C9465007C
:100070000C9465000C9465000C9465000C9465006C
:100080000C9465000C9465000C94650011241FBE4F
:10009000CFEFD0E4DEBFCDBF11E0A0E0B1E0EEE7EE
:1000A000FFE000E00BBF02C007900D92A232B10743
:1000B000D9F721E0A2E2B1E001C01D92AC35B20750
:1000C000E1F70E94CC050C94BD070C940000CF937F
:1000D000DF9300D01F92CDB7DEB789837B836A831D
:1000E00089818A3031F48A819B81BC018DE00E9434
:1000F000670080EC90E0FC018081882F90E08072A6
:100100009927892BB1F386EC90E02981FC012083AB
:1001100080E090E00F900F900F90DF91CF910895C5
:10012000CF93DF9300D000D0CDB7DEB769837A8359
:100130008B839C8389819A81AB81BC8180930E01E2
:1001400090930F01A0931001B093110180910E01C3
:1001500090910F01A0911001B091110180932301A2
:1001600090932401A0932501B093260100000F90E5
:100170000F900F900F90DF91CF910895CF93DF9361
:10018000CDB7DEB781E890E02BE0FC01208388E862
:1001900090E02DE730E0FC01318320838FE690E092
:1001A00022E0FC01208384E890E0FC0111821082AF
:1001B00080910E0190910F01A0911001B091110159
:1001C0008093230190932401A0932501B0932601ED
:1001D0008FE590E02FE530E0F90120812068FC01F7
:1001E00020830000DF91CF910895CF93DF93CDB7A7
:1001F000DEB781E890E0FC0110820000DF91CF9132
:100200000895CF93DF93CDB7DEB781E080932201CD
:100210000000DF91CF9108951F920F9200905F0030
:100220000F92112400905B000F922F933F934F93F6
:100230005F936F937F938F939F93AF93BF93EF934E
:10024000FF93CF93DF93CDB7DEB7809123019091D9
:100250002401A0912501B09126010197A109B109BE
:100260008093230190932401A0932501B09326014C
:100270008091230190912401A0912501B091260144
:10028000892B8A2B8B2B91F40E94010180910E0106
:1002900090910F01A0911001B09111018093230161
:1002A00090932401A0932501B09326010000DF91D3
:1002B000CF91FF91EF91BF91AF919F918F917F91DE
:1002C0006F915F914F913F912F910F9000925B0042
:1002D0000F9000925F000F901F901895CF93DF93BF
:1002E000CDB7DEB72C970FB6F894DEBF0FBECDBFEB
:1002F0006D837E838F83988729873A874B875C87B6
:100300008D819E81AF81B88529853A854B855C8535
:10031000BC01CD010E949B07DC01CB0189839A833C
:10032000AB83BC8389819A81AB81BC81892B8A2B69
:100330008B2B29F489859A85AB85BC8511C089856D
:100340009A85AB85BC858D839E83AF83B887898171
:100350009A81AB81BC8189879A87AB87BC87D0CFD4
:10036000BC01CD012C960FB6F894DEBF0FBECDBFF9
:10037000DF91CF910895CF93DF93CDB7DEB78AE7B2
:1003800090E02AE730E0F9012081206EFC01208313
:100390000000DF91CF910895CF93DF9300D000D07C
:1003A000CDB7DEB78B836C831A82198249C088E28D
:1003B00090E028E0FC0120838BE290E028E0FC0143
:1003C000208388E290E028E230E0F9012081422F8A
:1003D0002B81222F30E0098002C0359527950A94A1
:1003E000E2F72170242BFC0120838BE290E02BE2CA
:1003F00030E0F9012081422F2C81222F30E009804A
:1004000002C0359527950A94E2F72170242BFC0150
:10041000208388E290E028E230E0F9012081226028
:10042000FC0120838BE290E02BE230E0F901208197
:100430002260FC01208389819A8101969A838983B5
:1004400089819A8108970CF4B2CF88E290E028E283
:1004500030E0F90120812460FC0120838BE290E0F0
:100460002BE230E0F90120812460FC01208388E246
:1004700090E0FC0110828BE290E0FC011082000011
:100480000F900F900F900F90DF91CF910895CF9321
:10049000DF931F92CDB7DEB789838CE790E0298187
:1004A000283028F02CE730E0F901208101C02981B3
:1004B000FC01208310922D0106C0000080912D01C7
:1004C0008F5F80932D0180912D018F30B0F300005C
:1004D0000F90DF91CF910895CF93DF9300D000D09C
:1004E000CDB7DEB79C838B8388E790E0FC018081E9
:1004F00091819A8389838B819C8181309105D1F090
:100500008230910579F1892B09F04AC089819A815D
:10051000843F914020F481E090E09C838B8389812B
:100520009A818935924008F43EC082E090E09C8335
:100530008B8339C080912E0118168CF080911201A6
:10054000869580688093120180911301869580685A
:100550008093130180912E018F5F80932E011C8266
:100560001B8222C080912E018823BCF08091120151
:10057000882F90E0880F991F8160809312018091ED
:100580001301882F90E0880F991F816080931301D9
:1005900080912E01815080932E011C821B8204C009
:1005A0001C821B8201C000008B819C810F900F90E8
:1005B0000F900F90DF91CF910895CF93DF9300D0EC
:1005C000CDB7DEB79A83898389819A810F900F9086
:1005D000DF91CF910895CF93DF9300D000D0CDB7B6
:1005E000DEB79C838B8388E790E0FC01808191815A
:1005F0009A8389838B819C818230910509F4BDC0E7
:10060000833091052CF4009779F00197C1F069C20D
:100610008430910509F4DCC1843091050CF450C19B
:10062000059709F452C25DC28FED80932B0188E0DB
:1006300080932C0184E090E09C838B8355C2809151
:100640001601882309F08DC0809115018093160151
:1006500080912F01823029F482E090E09C838B838B
:1006600043C280912C018034A9F590912B01809197
:100670001201982B80912B01981761F584E090E08E
:100680009C838B8389819A81843F914028F0898162
:100690009A818935924020F082E08093170103C04F
:1006A00081E0809317019091130180912B0198179D
:1006B00031F4809115018F5F809315015CC08091AA
:1006C0001501882309F457C080911501815080934A
:1006D000150151C080912C01803869F48091290165
:1006E0008F5F8093290181E08093270185E090E06E
:1006F0009C838B83F9C180911701813021F0809117
:100700002F01813061F480912F018F5F80932F0141
:1007100080912B018695806880932B0118C0809171
:100720002F01982F80911701890F80932F018091BD
:100730002B01882F90E020911701222F30E002C07A
:10074000959587952A95E2F7806C80932B0180918F
:100750002C01880F80932C0181E090E09C838B8397
:10076000C3C18091160181508093160181E090E011
:100770009C838B83B9C10000B7C180911601882387
:1007800009F092C0809115018093160180912F018C
:100790008E3F29F481E090E09C838B83A5C18091FA
:1007A0002C018034A9F590912B0180911201982B96
:1007B00080912B01981761F583E090E09C838B83F7
:1007C00089819A81843F914028F089819A81893575
:1007D000924020F082E08093170103C081E0809373
:1007E00017019091130180912B01981731F480919A
:1007F00015018F5F8093150161C0809115018823D9
:1008000009F45CC08091150181508093150156C098
:1008100080912C01803869F4809129018F5F809349
:10082000290181E08093270185E090E09C838B8300
:100830005BC180911701813021F080912F018F3FA2
:1008400079F480912F01815080932F0180912B01A9
:10085000882F90E0880F991F816080932B011AC028
:1008600080912F01982F80911701292F281B822F0B
:1008700080932F0180912B01882F90E02091170108
:10088000222F30E002C0880F991F2A95E2F783607B
:1008900080932B0180912C01880F80932C0182E0A2
:1008A00090E09C838B8320C18091160181508093BE
:1008B000160182E090E09C838B8316C1000014C176
:1008C00080911601882309F077C0809115018093EB
:1008D000160180912F018E3F29F484E090E09C83E3
:1008E0008B8302C180912C01823021F590912B01E4
:1008F00080912A01982B80912B019817D9F482E0DE
:1009000090E09C838B839091140180912B01981728
:1009100031F4809115018F5F8093150157C080914C
:100920001501882309F452C08091150181508093EC
:1009300015014CC080912C01813069F4809128010F
:100940008F5F8093280181E08093270185E090E00C
:100950009C838B83C9C080911701813021F08091E5
:100960002F018F3F79F480912F01815080932F01C7
:1009700080912B01882F90E0880F991F81608093D0
:100980002B0110C080912F01825080932F01809104
:100990002B01882F90E0880F991F880F991F836083
:1009A00080932B0180912C01869580932C0183E00C
:1009B00090E09C838B8398C0809116018150809336
:1009C000160183E090E09C838B838EC000008CC076
:1009D00080911601882309F06CC080912F0182302C
:1009E00029F483E090E09C838B837EC080912C016E
:1009F000823021F590912B0180912A01982B8091D2
:100A00002B019817D9F481E090E09C838B8390911F
:100A1000140180912B01981731F4809115018F5F9B
:100A20008093150150C080911501882309F44BC0B3
:100A30008091150181508093150145C080912C0152
:100A4000813069F4809128018F5F8093280181E0D3
:100A50008093270185E090E09C838B8345C0809143
:100A60001701813021F080912F01813061F4809154
:100A70002F018F5F80932F0180912B0186958068D5
:100A800080932B010CC080912F018E5F80932F01EA
:100A900080912B0186958695806C80932B018091A7
:100AA0002C01869580932C0184E090E09C838B83BD
:100AB0001BC08091160181508093160184E090E064
:100AC0009C838B8311C000000FC080912701882375
:100AD00029F085E090E09C838B8306C01C821B82FA
:100AE00003C01C821B8200008B819C810F900F90A1
:100AF0000F900F90DF91CF910895CF93DF9300D0A7
:100B0000CDB7DEB79A83898389819A818130910537
:100B1000B9F0823091051CF4892B39F034C0823051
:100B20009105C9F0039751F12EC09091120180E810
:100B3000692F0E94CC0181E090E09A83898325C0CF
:100B400090912A0181E0692F0E94CC0182E090E01F
:100B50009A8389831AC090912B0180912C01692F6F
:100B60000E94CC0180912701882329F083E090E046
:100B70009A8389830AC01A82198207C06FEF80E0C6
:100B80000E94CC0102C01A82198289819A810F9039
:100B90000F90DF91CF9108950F931F93CF93DF9321
:100BA000CDB7DEB761970FB6F894DEBF0FBECDBFED
:100BB00081E290E0FC01108282E290E02FEFFC01E4
:100BC000208384E290E0FC01108285E290E02FEF28
:100BD000FC01208387E290E02FEFFC01208388E274
:100BE00090E0FC0110828AE290E02FEFFC0120836C
:100BF0008BE290E0FC01108288E0EAE1F1E0DE01A6
:100C00001A9601900D928A95E1F784E090E098871A
:100C10008F838FEF898789858093300184E690E008
:100C2000A0E0B0E08093310190933201A0933301B2
:100C3000B09334018091310190913201A091330140
:100C4000B09134018093350190933601A093370120
:100C5000B09338018CE692E090933A018093390189
:100C6000898580933B0184E690E0A0E0B0E080932A
:100C70003C0190933D01A0933E01B0933F018091D0
:100C80003C0190913D01A0913E01B0913F018093C4
:100C9000400190934101A0934201B09343018DED37
:100CA00092E09093450180934401898580934601A9
:100CB00084E690E0A0E0B0E0809347019093480183
:100CC000A0934901B0934A01809147019091480156
:100CD000A0914901B0914A0180934B0190934C013E
:100CE000A0934D01B0934E018BEE92E09093500192
:100CF00080934F0189858093510181E090E0A0E0CD
:100D0000B0E08093520190935301A0935401B093AB
:100D100055018091520190915301A0915401B091DD
:100D200055018093560190935701A0935801B093B9
:100D300059018DE795E090935B0180935A010E94E1
:100D4000BB0181E00E9447028A859B85FC0181816D
:100D50009281A381B4818B839C83AD83BE831A82ED
:100D6000198225C089819A81880F991F9E012F5F62
:100D70003F4F820F931F0996FC0180819181FC01F6
:100D800021813281438154818B819C81AD81BE81DF
:100D9000BC01CD010E946E01DC01CB018B839C83E1
:100DA000AD83BE8389819A8101969A838983298143
:100DB0003A818F81988528173907A0F28B819C8111
:100DC000AD81BE81BC01CD010E9490000E94BE0099
:100DD0001A821982A0C089819A81880F991F9E0169
:100DE0002F5F3F4F820F931F0996FC0180819181F5
:100DF000FC01258136814781508589819A81880F40
:100E0000991FBE016F5F7F4F860F971F0996FC01E8
:100E100080819181FC0181819281A381B481281715
:100E200039074A075B0709F045C089819A81880F15
:100E3000991F9E012F5F3F4F820F931F0996FC0160
:100E40000081118189819A81880F991F9E012F5FEE
:100E50003F4F820F931F0996FC0180819181FC0115
:100E60002185328589819A81880F991FAE014F5F54
:100E70005F4F840F951F0996FC0180819181FC01D1
:100E80008081082E000C990BF9010995F8018083E7
:100E900089819A81880F991F9E012F5F3F4F820F92
:100EA000931F0996FC0180819181FC0115821682B5
:100EB0001782108689819A81880F991F9E012F5F62
:100EC0003F4F820F931F0996FC01608171818981D8
:100ED0009A81880F991F9E012F5F3F4F820F931FAA
:100EE0000996FC0180819181FC0125813681478131
:100EF00050858B819C81AD81BE81820F931FA41F81
:100F0000B51FFB0185839683A783B08789819A816A
:100F100001969A83898329813A818F819885281740
:100F2000390708F458CF0000809122018823E1F3AB
:100F3000109222014DCFA1E21A2EAA1BBB1BFD016C
:100F40000DC0AA1FBB1FEE1FFF1FA217B307E407A8
:100F5000F50720F0A21BB30BE40BF50B661F771F00
:100F6000881F991F1A9469F76095709580959095E0
:0E0F70009B01AC01BD01CF010895F894FFCFA5
:100F7E0000000002000000006700000000000100F9
:100F8E0000008FDFDF040401800130013B014601C8
:020F9E005101FF
:00000001FF
