:100000000C944E000C946D000C946D000C946D00DB
:100010000C946D000C946D000C946D000C946D00AC
:100020000C946D000C946D000C946D000C946D009C
:100030000C946D000C9414010C946D000C946D00E4
:100040000C946D000C946D000C946D000C946D007C
:100050000C946D000C946D000C946D000C946D006C
:100060000C946D000C946D000C946D000C946D005C
:100070000C946D000C946D000C946D000C946D004C
:100080000C946D000C946D000C946D003E0782077B
:100090009607A107AC07C1073508690811241FBEE0
:1000A000CFEFD0E4DEBFCDBF11E0A0E0B1E0E6EBE2
:1000B000F6E100E00BBF02C007900D92AE33B1072E
:1000C000D9F721E0AEE3B1E001C01D92AA38B20732
:1000D000E1F70E948D080C94590B0C940000CF930B
:1000E000DF9300D01F92CDB7DEB789837B836A830D
:1000F00089818A3031F48A819B81BC018DE00E9424
:100100006F0080EC90E0FC018081882F90E080728D
:100110009927892BB1F386EC90E02981FC0120839B
:1001200080E090E00F900F900F90DF91CF910895B5
:10013000CF93DF9300D000D0CDB7DEB769837A8349
:100140008B839C8389819A81AB81BC8180930E01D2
:1001500090930F01A0931001B093110180910E01B3
:1001600090910F01A0911001B091110180933F0176
:1001700090934001A0934101B093420100000F9081
:100180000F900F900F90DF91CF910895CF93DF9351
:10019000CDB7DEB781E890E02BE0FC01208388E852
:1001A00090E02DE730E0FC01318320838FE690E082
:1001B00022E0FC01208384E890E0FC01118210829F
:1001C00080910E0190910F01A0911001B091110149
:1001D00080933F0190934001A0934101B09342016D
:1001E0008FE590E02FE530E0F90120812068FC01E7
:1001F00020830000DF91CF910895CF93DF93CDB797
:10020000DEB781E890E0FC0110820000DF91CF9121
:100210000895CF93DF93CDB7DEB781E080933E01A1
:100220000000DF91CF9108951F920F9200905F0020
:100230000F92112400905B000F922F933F934F93E6
:100240005F936F937F938F939F93AF93BF93EF933E
:10025000FF93CF93DF93CDB7DEB780913F019091AD
:100260004001A0914101B09142010197A109B1095A
:1002700080933F0190934001A0934101B0934201CC
:1002800080913F0190914001A0914101B0914201C4
:10029000892B8A2B8B2B91F40E94090180910E01EE
:1002A00090910F01A0911001B091110180933F0135
:1002B00090934001A0934101B09342010000DF916F
:1002C000CF91FF91EF91BF91AF919F918F917F91CE
:1002D0006F915F914F913F912F910F9000925B0032
:1002E0000F9000925F000F901F901895CF93DF93AF
:1002F000CDB7DEB72C970FB6F894DEBF0FBECDBFDB
:100300006D837E838F83988729873A874B875C87A5
:100310008D819E81AF81B88529853A854B855C8525
:10032000BC01CD010E94930ADC01CB0189839A8331
:10033000AB83BC8389819A81AB81BC81892B8A2B59
:100340008B2B29F489859A85AB85BC8511C089855D
:100350009A85AB85BC858D839E83AF83B887898161
:100360009A81AB81BC8189879A87AB87BC87D0CFC4
:10037000BC01CD012C960FB6F894DEBF0FBECDBFE9
:10038000DF91CF910895CF93DF93CDB7DEB78AE7A2
:1003900090E02AE730E0F9012081206EFC01208303
:1003A0000000DF91CF910895CF93DF9300D000D06C
:1003B000CDB7DEB78B836C831A82198249C088E27D
:1003C00090E028E0FC0120838BE290E028E0FC0133
:1003D000208388E290E028E230E0F9012081422F7A
:1003E0002B81222F30E0098002C0359527950A9491
:1003F000E2F72170242BFC0120838BE290E02BE2BA
:1004000030E0F9012081422F2C81222F30E0098039
:1004100002C0359527950A94E2F72170242BFC0140
:10042000208388E290E028E230E0F9012081226018
:10043000FC0120838BE290E02BE230E0F901208187
:100440002260FC01208389819A8101969A838983A5
:1004500089819A8108970CF4B2CF88E290E028E273
:1004600030E0F90120812460FC0120838BE290E0E0
:100470002BE230E0F90120812460FC01208388E236
:1004800090E0FC0110828BE290E0FC011082000001
:100490000F900F900F900F90DF91CF910895CF9311
:1004A000DF931F92CDB7DEB789838CE790E0298177
:1004B000283028F02CE730E0F901208101C02981A3
:1004C000FC0120831092510106C00000809151016F
:1004D0008F5F80935101809151018F30B0F3000004
:1004E0000F90DF91CF910895CF93DF9300D000D08C
:1004F000CDB7DEB79C838B8388E790E0FC018081D9
:1005000091819A83898380914A01882341F01092D6
:1005100052018FE8809316018FED809317018B8134
:100520009C8181309105D1F08230910579F1892B40
:1005300009F04AC089819A81843F914020F481E08A
:1005400090E09C838B8389819A818935924008F45D
:100550003EC082E090E09C838B8339C08091520141
:1005600018168CF08091160186958068809316018C
:1005700080911701869580688093170180915201C0
:100580008F5F809352011C821B8222C08091520196
:100590008823BCF080911601882F90E0880F991F66
:1005A00081608093160180911701882F90E0880F59
:1005B000991F81608093170180915201815080932F
:1005C00052011C821B8204C01C821B8201C00000DD
:1005D0008B819C810F900F900F900F90DF91CF91A6
:1005E0000895CF93DF9300D000D0CDB7DEB79C83C2
:1005F0008B8383E290E0FC018081882F90E0817002
:10060000992721E0892B09F020E0822F80934C016B
:1006100083E290E0FC0180818095827080934D019F
:100620001A82198280914A01882361F01092540144
:10063000109253018FE8809318018FED8093190178
:100640001C821B828B819C818230910509F45DC0E4
:10065000833091052CF4009771F00197D1F0BFC061
:100660008430910509F480C08430910524F1059708
:1006700009F48CC0B4C080914B01882329F481E037
:1006800090E09C838B83B1C085E090E09C838B835A
:10069000ACC080914D01882321F083E090E09C83E1
:1006A0008B8380914C01882309F49CC082E090E008
:1006B0009C838B8397C080915301909154011816AD
:1006C0001906ACF080911801869580688093180116
:1006D000809119018695806880931901809153015A
:1006E000909154010196909354018093530180910D
:1006F0004B01882329F484E090E09C838B8375C0B0
:1007000085E090E09C838B8370C080915301909131
:1007100054019923DCF080911801882F90E0880F14
:10072000991F81608093180180911901882F90E0B2
:10073000880F991F816080931901809153019091D6
:1007400054010197909354018093530180914B0180
:10075000882329F484E090E09C838B8346C085E065
:1007600090E09C838B8341C080914C01882349F4A5
:1007700080914D01882329F481E090E09C838B8354
:1007800034C084E090E09C838B832FC00E94090BCF
:1007900081709078992324F401978E6F9F6F019652
:1007A0009A8389839091190180914501981740F4AB
:1007B00089819A81892B21F483E090E09C838B834B
:1007C0009091190180914501891770F489819A816E
:1007D000892B51F482E090E09C838B8305C01C82BE
:1007E0001B8203C0000001C000008B819C810F9020
:1007F0000F900F900F90DF91CF910895CF93DF93DB
:1008000000D000D000D0CDB7DEB79E838D831A8292
:10081000198288E790E0FC01808191819C838B8321
:1008200080914A01882379F010924A0184E08093F4
:100830001A0184E080931B0181E080931C011092D7
:1008400055011E821D828D819E818230910509F4A1
:10085000F2C08330910534F4009781F0019709F4D8
:100860003FC0E2C28430910509F439C28430910559
:100870000CF491C1059709F4CBC2D6C20E94090BB2
:1008800083709078992324F401978C6F9F6F019661
:100890009A8389838FED8093450188E08093460198
:1008A00089819A81892B29F484E090E09E838D834D
:1008B000BEC289819A81019729F481E090E09E83EC
:1008C0008D83B5C289819A81029729F483E090E0F3
:1008D0009E838D83ACC282E090E09E838D83A7C20D
:1008E00080911B01882309F09AC080911A0180939E
:1008F0001B0180915501823029F482E090E09E83B3
:100900008D8395C2809146018034A9F5909145016F
:1009100080911601982B80914501981761F584E02C
:1009200090E09E838D838B819C81843F914028F051
:100930008B819C818935924020F082E080931C015C
:1009400003C081E080931C019091170180914501C3
:10095000981731F480911A018F5F80931A0169C052
:1009600080911A01882309F464C080911A01815092
:1009700080931A015EC0809146018038D1F4809145
:100980001201882329F4809144018F5F80934401F0
:1009900084E08093470182E08093480181E0809366
:1009A000490181E08093120185E090E09E838D8370
:1009B0003EC280911C01813021F08091550181302F
:1009C00061F4809155018F5F8093550180914501BD
:1009D000869580688093450118C080915501982FB5
:1009E00080911C01890F8093550180914501882FCA
:1009F00090E020911C01222F30E002C09595879550
:100A00002A95E2F7806C8093450180914601880F1A
:100A10008093460181E090E09E838D8308C280919F
:100A20001B01815080931B0181E090E09E838D83A8
:100A3000FEC10000FCC180911B01882309F09FC00A
:100A400080911A0180931B01809155018E3F29F4FA
:100A500081E090E09E838D83EAC1809146018034DD
:100A6000A9F59091450180911601982B809145013F
:100A7000981761F583E090E09E838D838B819C8144
:100A8000843F914028F08B819C818935924020F0F1
:100A900082E080931C0103C081E080931C0190914F
:100AA000170180914501981731F480911A018F5FE9
:100AB00080931A016EC080911A01882309F469C0DD
:100AC00080911A01815080931A0163C08091460180
:100AD0008038D1F480911201882329F48091440157
:100AE0008F5F8093440184E08093470182E080938C
:100AF000480181E08093490181E08093120185E003
:100B000090E09E838D8393C180911C01813021F000
:100B1000809155018F3F79F48091550181508093E8
:100B2000550180914501882F90E0880F991F8160C1
:100B3000809345011AC080915501982F80911C0126
:100B4000292F281B822F8093550180914501882FE2
:100B500090E020911C01222F30E002C0880F991FE5
:100B60002A95E2F783608093450180914601880FC2
:100B70008093460182E090E09E838D8358C18091EE
:100B80001B01815080931B0182E090E09E838D8346
:100B90004EC100004CC180911B01882309F093C015
:100BA00080911A0180931B01809155018E3F29F499
:100BB00084E090E09E838D833AC18091460182302B
:100BC00099F59091450180911801982B80914501EC
:100BD000981751F582E090E09E838D8380914C01BF
:100BE000882321F480914D01882321F082E08093B5
:100BF0001C0103C081E080931C0190911901809138
:100C00004501981731F480911A018F5F80931A0182
:100C100064C080911A01882309F45FC080911A0191
:100C2000815080931A0159C0809146018130D1F4DE
:100C300080911201882329F4809143018F5F809372
:100C4000430180E88093470180E48093480180E27B
:100C50008093490181E08093120185E090E09E83BA
:100C60008D83E5C080911C01813021F08091550178
:100C70008F3F79F480915501815080935501809187
:100C80004501882F90E0880F991F8160809345016E
:100C900010C080915501825080935501809145018B
:100CA000882F90E0880F991F880F991F8360809389
:100CB00045018091460186958093460183E090E04E
:100CC0009E838D83B4C080911B01815080931B0152
:100CD00083E090E09E838D83AAC00000A8C080912D
:100CE0001B01882309F088C080915501823029F4C6
:100CF00083E090E09E838D839AC08091460182308C
:100D000099F59091450180911801982B80914501AA
:100D1000981751F581E090E09E838D8380914C017E
:100D2000882321F480914D01882321F082E0809373
:100D30001C0103C081E080931C01909119018091F6
:100D40004501981731F480911A018F5F80931A0141
:100D50005DC080911A01882309F458C080911A015E
:100D6000815080931A0152C0809146018130D1F4A4
:100D700080911201882329F4809143018F5F809331
:100D8000430180E88093470180E48093480180E23A
:100D90008093490181E08093120185E090E09E8379
:100DA0008D8345C080911C01813021F080915501D7
:100DB000813061F4809155018F5F8093550180915E
:100DC000450186958068809345010CC0809155014E
:100DD0008E5F809355018091450186958695806C44
:100DE000809345018091460186958093460184E079
:100DF00090E09E838D831BC080911B018150809366
:100E00001B0184E090E09E838D8311C000000FC021
:100E100080911201882329F085E090E09E838D83E4
:100E200006C01E821D8203C01E821D8200008D81AD
:100E30009E8126960FB6F894DEBF0FBECDBFDF9120
:100E4000CF910895CF93DF9300D0CDB7DEB79A83CB
:100E5000898389819A81092E000CAA0BBB0B40E083
:100E600050E027E030E0841B950B2817390708F481
:100E700043C18A5B9F4FFC010C94B50A80915601D7
:100E800090915701805E9E4FFC0120818091560118
:100E900090915701885D9E4FFC018081622F0E94D6
:100EA000D4018091560190915701079750F4809199
:100EB00056019091570101969093570180935601E6
:100EC00004C0109257011092560190914C018091EC
:100ED0004D01981709F413C180914C01882319F032
:100EE00081E080934B0180914D01882311F0109295
:100EF0004B01109257011092560181E090E09A83C5
:100F00008983FDC080914C01882309F0FAC080914B
:100F10004D01882309F0F5C081E080934A011092C9
:100F2000120182E090E09A838983EBC090911601D0
:100F300080E8692F0E94D40183E090E09A8389833E
:100F4000E5C09091180181E0692F0E94D40184E0EE
:100F500090E09A838983DAC090914501809146019F
:100F6000692F0E94D40180911201882329F085E025
:100F700090E09A838983CAC082E090E09A83898353
:100F8000C5C080915601909157018D5E9E4FFC0126
:100F900020818091560190915701895B9E4FFC0101
:100FA0008081622F0E94D401809156019091570157
:100FB000039750F4809156019091570101969093B8
:100FC00057018093560104C01092570110925601A8
:100FD0008091580190915901883E934050F480913E
:100FE00058019091590101969093590180935801AD
:100FF0008DC0109259011092580110925701109211
:10100000560181E080934A0180914401833089F444
:1010100081E08093120184E080934E0182E080930E
:101020004F0181E08093500186E090E09A838983AC
:101030006DC080914301833089F481E08093120177
:1010400080E880934E0180E480934F0180E280939A
:10105000500186E090E09A83898358C01092120173
:1010600082E090E09A83898351C0809156019091EB
:101070005701835E9E4FFC01208180915601909123
:101080005701825B9E4FFC018081622F0E94D40138
:101090008091560190915701029750F4809156012A
:1010A000909157010196909357018093560104C087
:1010B000109257011092560180914C01882319F12A
:1010C00080914D018823F9F087E090E09A8389832D
:1010D0001AC080914C018823C1F480914D0188236E
:1010E000A1F41092570110925601109244011092EF
:1010F00043011A82198209C01A82198207C00000AE
:1011000005C0000003C0000001C0000089819A8171
:101110000F900F90DF91CF9108950F931F93CF936E
:10112000DF93CDB7DEB761970FB6F894DEBF0FBE81
:10113000CDBF81E290E0FC01108282E290E02FEFCF
:10114000FC01208384E290E0FC01108285E290E0C3
:101150002FEFFC01208387E290E02FEFFC0120833A
:1011600088E290E0FC0110828AE290E02FEFFC011F
:1011700020838BE290E0FC01108288E0E6E3F1E05E
:10118000DE011A9601900D928A95E1F784E090E0D5
:1011900098878F838FEF8987898580935A0184E6AA
:1011A00090E0A0E0B0E080935B0190935C01A0939D
:1011B0005D01B0935E0180915B0190915C01A09113
:1011C0005D01B0915E0180935F0190936001A093F7
:1011D0006101B093620184E792E09093640180938F
:1011E000630189858093650184E690E0A0E0B0E02A
:1011F0008093660190936701A0936801B0936901A1
:101200008091660190916701A0916801B091690198
:1012100080936A0190936B01A0936C01B0936D0170
:1012200081EF92E090936F0180936E0189858093A6
:1012300070018BE490E0A0E0B0E0809371019093A6
:101240007201A0937301B093740180917101909128
:101250007201A0917301B091740180937501909314
:101260007601A0937701B09378018EEF93E090938D
:101270007A0180937901898580937B0181E090E0F8
:10128000A0E0B0E080937C0190937D01A0937E016B
:10129000B0937F0180917C0190917D01A0917E01AE
:1012A000B0917F018093800190938101A09382018E
:1012B000B093830182E297E090938501809384014B
:1012C0000E94C30181E00E944F0280E090E00E94F2
:1012D000800ADC01CB010E940D0B8A859B85FC01F5
:1012E00081819281A381B4818B839C83AD83BE83F2
:1012F0001A82198225C089819A81880F991F9E01BF
:101300002F5F3F4F820F931F0996FC0180819181CF
:10131000FC0121813281438154818B819C81AD818B
:10132000BE81BC01CD010E947601DC01CB018B8323
:101330009C83AD83BE8389819A8101969A83898338
:1013400029813A818F81988528173907A0F28B81EE
:101350009C81AD81BE81BC01CD010E9498000E949C
:10136000C6008BE290E02BE230E0F9013081209161
:1013700044012295207F230FFC0120838BE290E023
:101380002BE230E0F9013081209143012295220FB8
:10139000220F207C230FFC0120831A821982A0C017
:1013A00089819A81880F991F9E012F5F3F4F820F7D
:1013B000931F0996FC0180819181FC012581368172
:1013C0004781508589819A81880F991FBE016F5F7F
:1013D0007F4F860F971F0996FC0180819181FC0148
:1013E00081819281A381B481281739074A075B075D
:1013F00009F045C089819A81880F991F9E012F5F4E
:101400003F4F820F931F0996FC0100811181898152
:101410009A81880F991F9E012F5F3F4F820F931F64
:101420000996FC0180819181FC01218532858981A9
:101430009A81880F991FAE014F5F5F4F840F951FF0
:101440000996FC0180819181FC018081082E000CAD
:10145000990BF9010995F801808389819A81880F98
:10146000991F9E012F5F3F4F820F931F0996FC012A
:1014700080819181FC0115821682178210868981F4
:101480009A81880F991F9E012F5F3F4F820F931FF4
:101490000996FC016081718189819A81880F991F69
:1014A0009E012F5F3F4F820F931F0996FC018081A1
:1014B0009181FC0125813681478150858B819C81FA
:1014C000AD81BE81820F931FA41FB51FFB018583D1
:1014D0009683A783B08789819A8101969A838983AD
:1014E00029813A818F8198852817390708F458CFC8
:1014F000000080913E018823E1F310923E0131CF3C
:10150000FC010FB6F894609186017091870180917B
:101510008801909189010FBE309721F0608371831B
:10152000828393830895A1E21A2EAA1BBB1BFD019F
:101530000DC0AA1FBB1FEE1FFF1FA217B307E407B2
:10154000F50720F0A21BB30BE40BF50B661F771F0A
:10155000881F991F1A9469F76095709580959095EA
:101560009B01AC01BD01CF010895EE0FFF1F0024C8
:10157000001C0BBE0790F691E02D09948F929F926C
:10158000AF92BF92CF92DF92EF92FF92CF93DF9311
:10159000EC01688179818A819B81611571058105E2
:1015A000910521F464E279ED8BE597E02DE133EFCD
:1015B00041E050E00E94180B49015A019B01AC0127
:1015C000A7EAB1E40E94370B6B017C01ACEEB4EFEB
:1015D000A50194010E94450BDC01CB018C0D9D1DE2
:1015E000AE1DBF1DB7FF03C00197A109B048888396
:1015F0009983AA83BB839F77DF91CF91FF90EF9070
:10160000DF90CF90BF90AF909F908F9008950C94F3
:10161000BE0A80E391E00C94BE0AA0E0B0E08093A3
:10162000300190933101A0933201B09333010895BA
:10163000052E97FB1EF400940E942F0B57FD07D038
:101640000E94930A07FC03D04EF40C942F0B509584
:101650004095309521953F4F4F4F5F4F089590959E
:101660008095709561957F4F8F4F9F4F08950E9491
:101670004A0BA59F900DB49F900DA49F800D911DC6
:1016800011240895B7FF0C94370B0E94370B821B6F
:10169000930B0895A29FB001B39FC001A39F700D4B
:1016A000811D1124911DB29F700D811D1124911D6A
:0616B0000895F894FFCF3D
:1016B60000000002000000006F00000000000100B2
:1016C600000001DF8FDF8FDF8FDF04040140004061
:1016D600AF87BFFFFFB797A780402010080402011D
:0E16E6000100000080015A01650170017B01C6
:00000001FF
